:020000040000FA
:100000000C945E000C9486000C9486000C94860080
:100010000C9486000C9486000C9486000C94860048
:100020000C9486000C9486000C9434020C94DE022E
:100030000C94ED010C9486000C9486000C948600C0
:100040000C94A3010C9486000C9486000C948600FA
:100050000C9486000C9486000C9486000C94860008
:100060000C9486000C948600000000080002010039
:100070000003040700000000000000000000000072
:10008000250028002B0000000000240027002A0083
:10009000040404040404040402020202020203032E
:1000A0000303030301020408102040800102040836
:1000B00010200102040810201B052C0511241FBE6E
:1000C000CFEFD8E0DEBFCDBF11E0A0E0B1E0E2E0CD
:1000D000FDE002C005900D92A437B107D9F722E0E8
:1000E000A4E7B1E001C01D92AB33B207E1F710E025
:1000F000CDE5D0E004C02197FE010E946506CC3515
:10010000D107C9F70E9474030C9474060C94000084
:10011000AF92BF92CF92DF92EF92FF920F931F9315
:10012000CF93DF936C017B018B01040F151FEB0153
:100130005E01AE18BF08C017D10759F06991D6010A
:10014000ED91FC910190F081E02DC6010995892B7C
:1001500079F7C501DF91CF911F910F91FF90EF903B
:10016000DF90CF90BF90AF9008953FB7F894809103
:10017000130290911402A0911502B091160226B5B7
:10018000A89B05C02F3F19F00196A11DB11D3FBFCF
:10019000BA2FA92F982F8827BC01CD01620F711D9E
:1001A000811D911D42E0660F771F881F991F4A9598
:1001B000D1F708958F929F92AF92BF92CF92DF9224
:1001C000EF92FF924B015C010E94B5006B017C0134
:1001D0000E94B5006C197D098E099F09683E734025
:1001E00081059105A8F321E0821A9108A108B108C0
:1001F00088EEC80E83E0D81EE11CF11C8114910426
:10020000A104B10429F7FF90EF90DF90CF90BF9049
:10021000AF909F908F90089550911B0240911A02C9
:10022000852F90E0242F30E0541718F0821B930B99
:100230000895805B9F4FFACF80911B02E0911A02D4
:100240008E1751F0EF5FE03508F0E0E0F0E0E254A7
:10025000FE4F808190E008958FEF9FEF0895809189
:100260001B0290911A02891769F09F5F903508F080
:1002700090E0E92FF0E0E254FE4F808190931A0263
:1002800090E008958FEF9FEF0895809119028111FA
:10029000FCCF0895809118028F5F843408F080E0CD
:1002A000909117029817E1F32FB7F89490911902E3
:1002B000992359F0E82FF0E0EC58FE4F60838093CB
:1002C00018022FBF81E090E0089581E08093190229
:1002D0006093B9011092B80182E086BB80916F00F3
:1002E000826080936F00809180008F7B8068809314
:1002F00080008091840090918500409690938900C1
:1003000080938800DECF90E080E00895CF93DF9364
:10031000FC0101900020E9F73197AF01481B590B10
:10032000BC018FE292E00E948800EC0142E050E0C4
:100330006DE171E08FE292E00E9488008C0F9D1FBA
:10034000DF91CF9108951F920F920FB60F92112453
:100350002F933F938F939F93AF93BF9380910F02FF
:1003600090911002A0911102B091120230910E02F0
:1003700023E0230F2D3758F50196A11DB11D2093C1
:100380000E0280930F0290931002A0931102B0937B
:1003900012028091130290911402A0911502B09163
:1003A00016020196A11DB11D8093130290931402B1
:1003B000A0931502B0931602BF91AF919F918F91B8
:1003C0003F912F910F900FBE0F901F90189526E828
:1003D000230F0296A11DB11DD2CF1F920F920FB60F
:1003E0000F9211242F938F939F93EF93FF938091FC
:1003F0006F008B7F80936F00809181008F7B809353
:10040000810080911C022091BD0120589091BC0177
:10041000893020F49695922B8F5FFACF9093BC0190
:1004200080911B028F5F803508F080E020911A02D6
:10043000281739F0E82FF0E0E254FE4F90838093C4
:100440001B0210921C02809181008F7B809381009F
:100450001092BD01FF91EF919F918F912F910F907D
:100460000FBE0F901F9018951F920F920FB60F920C
:1004700011242F933F934F935F936F937F938F93A9
:100480009F93AF93BF93EF93FF93809186009091DA
:1004900087004091BD01209181004423F1F12F7B21
:1004A000209381001092BD0130911C0231113CC09B
:1004B000411122C020911D0230911E02280F391FC8
:1004C00030938B0020938A0024E026BB20916F009C
:1004D000246020936F0020911F0230912002820F30
:1004E000931F36952795280F391F3093BB01209312
:1004F000BA0181E080931C02FF91EF91BF91AF910F
:100500009F918F917F916F915F914F913F912F912B
:100510000F900FBE0F901F901895206420938100BC
:1005200020E82093BD01C0CF4091BA015091BB019A
:1005300060911F0270912002DB01A095B095E091BF
:10054000BD012091BC01841B950BA817B90768F168
:1005500026952E2B460F571F3F5F861B970B393072
:10056000A0F32093BC0180916F008B7F80936F007C
:1005700080911B028F5F803508F080E090911A0215
:10058000981749F0E82FF0E09091BC01E254FE4F3B
:10059000908380931B02809181008F7B80938100E8
:1005A0001092BD0110921C02A7CF2093BC01509362
:1005B000BB014093BA0130931C029ECF1F920F9251
:1005C0000FB60F9211242F933F934F935F936F9326
:1005D0007F938F939F93EF93FF93209119026091E4
:1005E000B901809188009091890040911F0250913B
:1005F00020023091B8012A3070F5840F951F762FB4
:100600007170293009F471E066952F5F371799F3FF
:10061000309180007723E1F0306C3093800090932C
:100620008900809388007093B8016093B90120938A
:100630001902FF91EF919F918F917F916F915F913F
:100640004F913F912F910F900FBE0F901F901895D3
:100650003F7B3068E2CF30911802E09117023E13E1
:1006600019C02A3051F42BE020931902840F951FF2
:100670009093890080938800DCCF109219028091BA
:1006800080008F738093800080916F008D7F8093B6
:100690006F00CFCFEF5FE43408F0E0E0E0931702A3
:1006A000F0E0EC58FE4F30813093B9011092B80160
:1006B000309180003F7B3068309380002A3071F4A5
:1006C00020911F0230912002820F931F9093890086
:1006D0008093880081E080931902ABCF80918400E1
:1006E000909185004096F2CF789484B5826084BD65
:1006F00084B5816084BD85B5826085BD85B5816026
:1007000085BD80916E00816080936E0010928100A3
:10071000809181008260809381008091810081605E
:10072000809381008091800081608093800080911F
:10073000B10084608093B1008091B00081608093AB
:10074000B00080917A00846080937A0080917A0072
:10075000826080937A0080917A00816080937A0031
:1007600080917A00806880937A001092C100109284
:100770006F001092800081E88093810081E493E013
:100780009093200280931F0289E19EE190931E02C4
:1007900080931D02ECEAF0E02491E8E9F0E0849116
:1007A0008823C1F090E0880F991FFC01EA57FF4FA2
:1007B000C591D491FC01E458FF4FA591B4919FB726
:1007C000F8943881822F809583238883EC91E22BE3
:1007D000EC939FBFE1E7F0E024914DEA50E0FA018D
:1007E000349189E990E0FC0164916623D9F02223D9
:1007F00059F0233009F4CCC008F0BFC0213009F40F
:10080000CDC0223009F4CEC0E62FF0E0EE0FFF1F7E
:10081000E458FF4FA591B4912FB7F8946C91362B03
:100820003C932FBFFA014491FC018491882399F0F5
:1008300090E0880F991FFC01EA57FF4FA591B491F2
:10084000FC01E458FF4F859194918FB7F8949C91E7
:10085000492B4C938FBF10921C0210921B021092D6
:100860001A0210921902109218021092170280E2D6
:1008700086BB80936F0080E480937C0080917A0037
:10088000806480937A0080917A0086FDFCCF60912D
:10089000780070917900072E000C880B990B611578
:1008A00071058105910511F00E94E50500E315E74A
:1008B00088EE882E83E0982EA12CB12CC1E2D2E0E4
:1008C0009AE0792E2AE0E22EF12C30E0C32E30E0BF
:1008D000D32E80912D0290912E029C012F5F3F4FCD
:1008E00030932E0220932D02B8010E9451060197E9
:1008F00071F480E291E00E9486010E949605A501B4
:1009000094010E94EE0570932E0260932D028FE2F7
:1009100092E00E940C01892B09F473C08FE292E0EF
:100920000E942F01282F8D3019F08A3009F070C0F5
:1009300010922A0210922C0210922B0261E272E0B5
:1009400080E091E00E946B06892BC9F58FE191E070
:100950000E94860187E391E00E94860168EE73E0C1
:1009600080E090E00E94DA0083E591E00E94860139
:1009700068EC70E080E090E0F5CF2730B1F02830EF
:10098000D1F0243009F040CF209180002F7D03C0AA
:10099000209180002F772093800036CF24B52F77C9
:1009A00024BD32CF24B52F7DFBCF2091B0002F770F
:1009B0002093B00029CF2091B0002F7DF9CF8FE197
:1009C00091E00E948601FE0101900020E9F7AF014D
:1009D0004252524061E272E08FE292E00E9488004F
:1009E0008FE191E00E94860185E691E00E948601F8
:1009F0008FE191E00E948601FE01872D11928A9578
:100A0000E9F7C114D10409F464CF0E94000061CF5A
:100A100080912B0290912C02AC014F5F5F4F50935D
:100A20002C0240932B02B7010E945106FC01EF5D9E
:100A3000FD4F2083E6CFEFE2F2E01382128288EED0
:100A400093E0A0E0B0E084839583A683B7838FE032
:100A500091E09183808308958FE091E0909330023C
:100A600080932F0280916F008B7F80936F00809125
:100A70006F008F7D80936F0080911A0280931B021C
:100A8000809119028111FCCF80916F008D7F80933E
:100A90006F0008958F929F92AF92BF92CF92DF9294
:100AA000EF92FF92CF93DF93EC01688179818A8185
:100AB0009B81611571058105910521F464E279ED51
:100AC0008BE597E02DE133EF41E050E00E94EE0529
:100AD00049015A019B01AC01A7EAB1E40E940D064D
:100AE0006B017C01ACEEB4EFA50194010E941B06E2
:100AF000C60ED71EE81EF91EF7FE06C081E0C81A12
:100B0000D108E10880E8F80AC882D982EA82FB822B
:100B1000C701B6019F77DF91CF91FF90EF90DF90F3
:100B2000CF90BF90AF909F908F9008958F929F929B
:100B3000AF92BF92CF92DF92EF92FF926091070146
:100B4000709108018091090190910A016115710568
:100B50008105910521F464E279ED8BE597E02DE1C3
:100B600033EF41E050E00E94EE0549015A019B013C
:100B7000AC01A7EAB1E40E940D066B017C01ACEE6A
:100B8000B4EFA50194010E941B06C60ED71EE81EF5
:100B9000F91EF7FE06C081E0C81AD108E10880E816
:100BA000F80AC0920701D0920801E0920901F09280
:100BB0000A01C701B6019F77FF90EF90DF90CF90B9
:100BC000BF90AF909F908F900895609307017093AE
:100BD00008018093090190930A010895052E97FB5F
:100BE0001EF400940E94050657FD07D00E942006BF
:100BF00007FC03D04EF40C940506509540953095B3
:100C000021953F4F4F4F5F4F089590958095709578
:100C100061957F4F8F4F9F4F08950E944206A59F79
:100C2000900DB49F900DA49F800D911D11240895E7
:100C3000B7FF0C940D060E940D06821B930B0895BE
:100C4000A1E21A2EAA1BBB1BFD010DC0AA1FBB1FD0
:100C5000EE1FFF1FA217B307E407F50720F0A21B42
:100C6000B30BE40BF50B661F771F881F991F1A94AF
:100C700069F760957095809590959B01AC01BD01D9
:100C8000CF010895A29FB001B39FC001A39F700D33
:100C9000811D1124911DB29F700D811D1124911D84
:100CA0000895AA1BBB1B51E107C0AA1FBB1FA617B3
:100CB000B70710F0A61BB70B881F991F5A95A9F705
:100CC00080959095BC01CD010895EE0FFF1F059012
:100CD000F491E02D0994FB01DC018D9101908019C4
:100CE0000110D9F3990B089510E0CDE5D0E004C0D0
:100CF000FE010E9465062196CE35D107C9F7F8940A
:100D0000FFCF616263313233000100000000000058
:100D1000004A018800830145010C012F011C010DCF
:100D20000A00456E7465722050617373776F726448
:100D3000202B20454E54455200476F6F6420506170
:100D40007373776F726421204920616D206861633D
:100D50006B65642100726F6F7440726F6F746B69A2
:100D6000742E657323200042616420706173737771
:060D70006F726421000017
:107E0000112484B714BE81FFF0D085E080938100F7
:107E100082E08093C00088E18093C10086E0809377
:107E2000C20080E18093C4008EE0C9D0259A86E02C
:107E300020E33CEF91E0309385002093840096BBD3
:107E4000B09BFECF1D9AA8958150A9F7CC24DD24C4
:107E500088248394B5E0AB2EA1E19A2EF3E0BF2EE7
:107E6000A2D0813461F49FD0082FAFD0023811F036
:107E7000013811F484E001C083E08DD089C08234E0
:107E800011F484E103C0853419F485E0A6D080C0E4
:107E9000853579F488D0E82EFF2485D0082F10E0AE
:107EA000102F00270E291F29000F111F8ED06801E7
:107EB0006FC0863521F484E090D080E0DECF843638
:107EC00009F040C070D06FD0082F6DD080E0C81688
:107ED00080E7D80618F4F601B7BEE895C0E0D1E017
:107EE00062D089930C17E1F7F0E0CF16F0E7DF06D8
:107EF00018F0F601B7BEE89568D007B600FCFDCFD4
:107F0000A601A0E0B1E02C9130E011968C91119780
:107F100090E0982F8827822B932B1296FA010C0160
:107F200087BEE89511244E5F5F4FF1E0A038BF0790
:107F300051F7F601A7BEE89507B600FCFDCF97BE46
:107F4000E89526C08437B1F42ED02DD0F82E2BD052
:107F50003CD0F601EF2C8F010F5F1F4F84911BD097
:107F6000EA94F801C1F70894C11CD11CFA94CF0C13
:107F7000D11C0EC0853739F428D08EE10CD085E9AC
:107F80000AD08FE07ACF813511F488E018D01DD067
:107F900080E101D065CF982F8091C00085FFFCCF94
:107FA0009093C60008958091C00087FFFCCF809118
:107FB000C00084FD01C0A8958091C6000895E0E648
:107FC000F0E098E1908380830895EDDF803219F02E
:107FD00088E0F5DFFFCF84E1DECF1F93182FE3DFCA
:107FE0001150E9F7F2DF1F91089580E0E8DFEE27F6
:047FF000FF270994CA
:027FFE00040479
:00000001FF
